:020000040800F2
:10000000100A00205501000831690008C14E00089F
:1000100000000000000000000000000000000000E0
:100020000000000000000000000000003D69000822
:1000300000000000000000003B6900089169000812
:100040006701000800000000670100086701000860
:1000500067010008BD15000867010008C715000802
:1000600000000000151500082515000867010008AC
:100070000513000867010008516A0008000000002D
:10008000616A00080000000000000000316A0008FA
:1000900000000000416A000867010008C54E000822
:1000A0000000000067010008000000006701000870
:1000B00000F002F800F03EF80CA030C80838241810
:1000C0002D18671EA246AB4654465D46AC4201D190
:1000D00000F030F87E460F3EB6460FCC0126334284
:1000E00000D0FB1A3343A246AB4618479C7700006A
:1000F000BC770000103A02D378C878C1FAD852070A
:1001000001D330C830C101D504680C6070470000CD
:100110000023002400250026103A01D378C1FBD823
:10012000520700D330C100D50B6070471FB51FBD0B
:1001300010B510BD01F064F81146FFF7F7FF06F0A7
:10014000FFFF01F07CF803B4FFF7F2FF03BC01F0FE
:10015000D1F800000748804707480047FEE7FEE760
:10016000FEE7FEE7FEE7FEE704480549054A064BC1
:10017000704700002D6A0008B1000008100400203C
:10018000100A0020100600201006002043435143AF
:1001900030B55C18010C130C0D4692B25D4380B271
:1001A00051432C19054655430A0C09044D19624167
:1001B0005843010C00044019514130BDFEB50446BE
:1001C00010460D46184373D0A6468C460020A41A4C
:1001D00001469D4167D36646002701243D46B61A75
:1001E0009D4102D313463A462124654676462F04A4
:1001F000360C3E432D0CB61A9D4104D3150C1B043E
:100200002B4312041034654676462F06360A3E43C9
:100210002D0AB61A9D4104D3150E1B022B43120260
:100220000834654676462F0736093E432D09B61A2F
:100230009D4104D3150F1B012B431201241D65465C
:100240007646AF07B6083E43AD08B61A9D4104D3C3
:10025000950F9B002B439200A41C65467646EF0742
:1002600076083E436D08B61A9D411AD392185B4139
:10027000641C16E00018764665464941B71A9D4150
:100280000191009009D36046B11A98418E46844688
:10029000009801990025401C6941DD0752082A4356
:1002A0005B08641EE6D57246634603B0F0BDFFE707
:1002B0002046284307D00020C0430146C046C04620
:1002C00022462B46F1E700200146F7E701E004C093
:1002D000091F0429FBD28B0701D50280801CC907A6
:1002E00000D00270704700290BD0C30702D0027003
:1002F000401C491E022904D3830702D50280801CBA
:10030000891EE3E70022EEE70022DFE7002203096F
:100310008B422CD3030A8B4211D300239C464EE020
:1003200003460B433CD4002243088B4231D30309DC
:100330008B421CD3030A8B4201D394463FE0C3098E
:100340008B4201D3CB01C01A524183098B4201D3A6
:100350008B01C01A524143098B4201D34B01C01A91
:10036000524103098B4201D30B01C01A5241C30809
:100370008B4201D3CB00C01A524183088B4201D378
:100380008B00C01A524143088B4201D34B00C01A64
:100390005241411A00D201465241104670475DE079
:1003A000CA0F00D04942031000D3404253409C463C
:1003B000002203098B422DD3030A8B4212D38901F9
:1003C000FC2212BA030A8B420CD3890192118B4290
:1003D00008D3890192118B4204D389013AD092113A
:1003E00000E08909C3098B4201D3CB01C01A5241F5
:1003F00083098B4201D38B01C01A524143098B42BE
:1004000001D34B01C01A524103098B4201D30B01A6
:10041000C01A5241C3088B4201D3CB00C01A5241CB
:1004200083088B4201D38B00C01A5241D9D24308B2
:100430008B4201D34B00C01A5241411A00D20146EF
:100440005241104663465B1001D34042002B00D559
:100450004942704763465B1000D3404201B50549ED
:10046000002802DC491C084000E00846C046C0469F
:1004700002BD00BFFFFFFF7F70477047704700005D
:100480000246C80FC00781434B0030B54B405B00AC
:100490009B0D20D01923DB06C91801231B059942A7
:1004A00020DB0324A40704251346AB400BD3002B09
:1004B00004D1EB0613409B00E34204D401246407FB
:1004C000002312195941FF231B0599420BD2C90081
:1004D0000143500F09E0CB0204D501430803024356
:1004E00005D0054830BDFF21C905084330BD084689
:1004F00007210905884330BD0000C07FF0B50C46D8
:10050000871A9C410D46861A9D4103D2C01BA1410A
:10051000D21963410D0D1F0DC94EEC1BAE435CD0CB
:100520007F057F0D0026002F51D02D05AC46A94335
:10053000DD020123ED0A1B051D4320231B1B24D4D0
:100540001746E740381871412F46E740CC199D40C7
:100550002818314661410C0D27D161449A4013D5CA
:100560000023401C594152000ED140084000012296
:100570004B005205D34207D305204007C14201D5A5
:10058000B04900E0B0493046F0BD6B00002A00D011
:1005900001229A181F23203C1B1B01D5002302E0D7
:1005A000E540281871410C0DD7D001242405091904
:1005B000C407CD0740084908E40F28436144002CD4
:1005C000D5D00024401C61419A40D0D1CDE76A05C6
:1005D000520DD9D1C90FC907D5E79C4D4E0000284F
:1005E00001D0012400E0002434195F00002A01D06A
:1005F000012600E00026BE19954FAC420CD8AE4251
:100600000AD8B44206D001256D05EC42BCD0104694
:100610001946F0BD9942FCD000203946F0BDF0B536
:100620001FB40C460F46811A9F412546861A9D41EC
:1006300006D20125ED076F40401ABC4152187B419C
:10064000210D1E0D8D1BAC467D4D8D437ED0750555
:100650006D0D7CD00D05AE46AC431B031B0B794DD5
:1006600052429D41202366469B1B14D31746F740F8
:10067000381800260090744160462F460741E4195F
:1006800000989D402818664116D4714671189A400A
:1006900025D5012320E093182A466A415200002BF9
:1006A00000D0521C1E23203E9B1B002B61DD3541D8
:1006B000EE1728186641E8D5001876415B1C9A4071
:1006C00000D3401C4B05F3181524E34010D3002B36
:1006D00052D071467118D30FC01802D3491C05B00F
:1006E000F0BD0123DB079A42F9D140084000F6E74C
:1006F00001225205B21801D1002853D00123CC0A9F
:10070000DB029943891E002A08D1020C03D0020C97
:100710000004103902E00246002020390023550B66
:1007200005D112020823550B01D152010D23550C9E
:1007300001D112011B1DD50C01D192009B1C150D7E
:1007400001D152005B1C2025EE1A01E02CE022E0D2
:100750000546F54015439840CA1AE1076918130584
:10076000C918002ABBDA032040070818C10FC907BF
:100770000FE071466118B2E7F107400808437110B5
:1007800071444A000CD001235B059A42A7D2C90FDD
:10079000C9070020A3E74905490D26D1002001E043
:1007A0000028F4D100219AE7284D6600002801D0E6
:1007B000012100E0002171185F00002A01D001260C
:1007C00000E00026BE19224FA94210D8AE420ED832
:1007D000B14208D001256D05E94206D01946A802AC
:1007E000414010467BE79C4201D0214677E700203C
:1007F000394674E710B50C465C4005D50124E40782
:100800006340FFF70CFF10BDFFF778FE10BD30B45A
:100810000C465C4004D50124E407634030BC6DE61F
:1008200030BCFCE670B50124E40761400D465D4034
:1008300002D4FFF763FE70BD6340FFF7F0FE70BDAA
:10084000FF0700000000F0FF0000F07F0000E0FF65
:100850000000F87FF0B5F94D0C091E092C402E4020
:100860002F468BB0A7437DD0B543FCD0002E7AD065
:10087000002CFCD00D465D40ED0F2543AC1BFF2541
:10088000AD0464190894C502440DC9022143500DFA
:10089000DC0204430120C00701430443D20201915A
:1008A000200C110C00958C46010423468B430A91C1
:1008B00061460904E24D8A430991010A7D444919C0
:1008C0008039097805464D4301266D18F605751BDC
:1008D0006943C90C640B891C4C436418B5012C1B7B
:1008E000250C2E04B4434C434D43210C691889094F
:1008F0000591009DE90701D00121C90704912C460B
:1009000001996708CD072F434C08059DE10B4D4326
:100910002D0C29466646754302950D4645432E46E5
:10092000029D7D1BB44100950D465D4301942C0C46
:100930002F040D465543AE462D0C3D4302950394BE
:100940007546049C2D04641B049406D2029C039DEE
:10095000641C002675410395029401AC70CC009F85
:100960007D1B01E03EE162E1B4410904009507917D
:1009700001940599A4086143090C0C464443650B96
:10098000E7040C4666467443A646640B3C43039555
:1009900002947446049DE4042C1B049406D2029C29
:1009A000039D641C002675410395029401AC70CC34
:1009B000009F7D1BB44101940C465C430095650F7C
:1009C000E7000C465443A646640F3C43039502944B
:1009D0007446049DE4002C1B049406D2029C039DE3
:1009E000641C002675410395029401AC70CC009FF5
:1009F0007D1BB441AE09AF06049DC900AD092F436C
:100A0000049DA406AD060495079D3443691807911B
:100A1000059DE10B4D432D0C294666467543029515
:100A20000D4645432E46029D7D1BB44100950D4663
:100A30005D4301942C0C2F040D465543AE462D0CFE
:100A40003D43029503947546049C2D04641B049455
:100A500006D2029C039D641C0026754103950294F6
:100A600001AC70CC009F7D1BB44101948C050694B1
:100A7000079C890A611800950791019C0599A408B3
:100A80006143090C0D464543680BEF040D4664466F
:100A900065436C0B3C43049FED047D1BAC4602D2C6
:100AA0000025641C6841009E019D371B8541084656
:100AB000584301950C46460FC5005443600F284328
:100AC0006546E4002C1B02D20025401C6E41019DAE
:100AD0003F1AB5412846BD09800628438446A0092F
:100AE000BF064E020699A40676180743079D00200C
:100AF00068410A99079019430020099B00906046BD
:100B0000FF1913434041E20F64003A43A4460446F0
:100B1000D71A8C41A04203D90120009020463A46C2
:100B2000C70F941840416246D20F224364466400C6
:100B30000494009CBE466400D71AA446044602975B
:100B40008C417746002F01D1A04204D96046401C59
:100B50008446029A2046C40FA64694184041049A3F
:100B60000546D20F224364466400D31A8D41714674
:100B7000002901D1A84202D928461A46641C104314
:100B80000122002800D0164361020020079B89192A
:100B900004465C410223002C02DB491813466441E1
:100BA000089DCE0A2D145D194B056705E10A2C0539
:100BB0000D1908993E43C9076940002B08D093409E
:100BC00006D30022761C5141002B01D17608760015
:100BD0001C4A002D43DB154241D0AA433FD030468A
:100BE0000BB0F0BD06180D464D41174C7642AC4196
:100BF0001AD395181C465C41134A6D42A24113D387
:100C0000012252054C00D4420AD15C00D4420BD0E0
:100C10004B4002D592021143E2E749004908DFE761
:100C20005940C90FC90718E000200849D8E705480E
:100C300001420DD10342F7D0F2E700000000FF07A8
:100C4000D86E00000000F07F0000E0FF0000F87F99
:100C5000114859400143C01241400020C0E7012320
:100C6000089A9B069A4205DC032252078918C90F8D
:100C7000C907B5E7052252078918074A1143D2125E
:100C80005140ADE770B515461C4602460B46284656
:100C90002146FFF7DFFD70BDFFFFFF7F1F22030C22
:100CA00002D10F22000402D0030E03D004E0002082
:100CB000014670470002083A030F01D10001121FDC
:100CC000830F01D18000921E002801DB4000521EDC
:100CD000120551184205C012411810467047C10F45
:100CE000C90700D04042012292071143D6E70121F3
:100CF0008907D3E7F0B58B4C0F09254689B0BD4372
:100D00007BD01D092646AE43FAD00E465E402740F2
:100D1000F60F3E43254071D024012142FBD0FF2431
:100D2000AD19A4042D1B039501252D05DB02DB0A5B
:100D3000C9022B43C90A29431E010901040F130FDD
:100D4000050121431701880B820391432D098C462D
:100D5000A90B1E438A039543B30B9A0396433F099D
:100D6000BA0B9403A74302962E467E430497B646D9
:100D70004E19D7190C460196544305977E43371BED
:100D80007646BF1B3601B646BE0B36190096764630
:100D9000BC043719009C01D3641C00946400002F2C
:100DA00001D001263443029E049F754366467E436C
:100DB0000496760034196E0034190094029C019E4A
:100DC0001C196643751BAE46069465464519059C7D
:100DD00005956C43594375460891691A0191049E23
:100DE00001465143A41B0491611A009C0791E1063E
:100DF00005D061090122114302E072E06EE0610951
:100E0000089D00272C0A2D066918049D7C412A0A9A
:100E10002D066918019D6241AC0DAD026D1854415B
:100E2000079A910D920255196141029A64465843FE
:100E30005443069B059A5A43121A131B9A0E9B01A0
:100E40005B187A41010B0005C3185141220A2006A4
:100E500044195A419A4200D2491C01204002814261
:100E600003D315230226F64302E014230326F64398
:100E70002020C51AA9401746AF40DA400A43204651
:100E80000399D8400914731819055118039A384367
:100E9000D2075140AC4009D00122944006D3002231
:100EA000401C5141002C01D1400840001E4A934291
:100EB00012D3012203989206904207DB05204007D7
:100EC00009181A480143C012414004E003204007BA
:100ED0000818C10FC907002009B0F0BD0020F107B4
:100EE000FAE705180C464C4111486D42A04115D354
:100EF00094181A465A410E48644290410ED301207C
:100F00004A004005824209D35A00824206D3594022
:100F1000C90F084AC90700201143DDE70020064930
:100F2000DAE700000000FF07FE070000FFFFFF7F79
:100F30000000E0FF0000F07F0000F87F0121C905FC
:100F40000123411842001B06D3185B0E0AD0C110C2
:100F50000722D206891840075242D14201D55200D9
:100F600089187047090208D50146002A03D0C10F2D
:100F7000C9070020704710467047420202D0002087
:100F800002497047072109050143F4E70000F87F93
:100F9000F0B5FF252D04C609C209FF2704462E40DF
:100FA0000137CB093E4348402A402B400746002AE0
:100FB0006BD0002B69D0AA4267D0AB4265D0002825
:100FC00000DA32460125ED0529432C4309022002AF
:100FD000090AD21A4B0C7F24E31A434C000A7C44C2
:100FE000E35C7D242404121914145B00A2188842C7
:100FF00001D3521C00E0400049420C465C432411DE
:101000005C43DB016415E318040A5C43C502200D50
:101010000C4644436419250A5D432303EC0C0D463A
:10102000654300030019EB184C42A34201D35B183F
:10103000401CD4052018002B07D05B00C91804D32E
:10104000401C002901D1400840003F2189048A4208
:1010500009D3002A08DC1106090F04D0032149072F
:101060004018C00FC007F0BD0122410012068918C8
:101070007F2252069142F6D205214907C84201D586
:101080009010F0BDFF20C005F0BD002F00DA324601
:101090001648AA4207D2AB4205D21902090E17D050
:1010A000F80FC007F0BDFF2563002D06AB42F9D84D
:1010B0004900A942F6D8AB4201D1A942F2D0A942D7
:1010C00001D1002101E061004908D0050843F0BDCD
:1010D0001102090EFBD0FF200243D005F0BD0A46E5
:1010E0000146104654E70000366800000000C07F4B
:1010F00010B501469E240002CA15A307002A02D09B
:101100001843002A04DBA21A002A0CDDD04010BDCF
:101110001206120E01D140004008A21A03D4D0409A
:1011200040420028F3DDFF2248001206904201D918
:10113000002010BDC817C043584010BD1F22030C2B
:1011400002D10F2200041CD0030E01D10002083A84
:10115000030F01D10001121F830F01D18000921EE5
:10116000002801DB4000521ED2055118021251180E
:101170001922904004D3491C002801D14908490094
:1011800008467047C10FC90700D0404201229207AC
:101190001143D3E701218907D0E7000010B5FF23F1
:1011A0001B0644009C421DD84C009C421AD80346A2
:1011B000124A0B4307D4401A02D3EFF3008010BD4C
:1011C000EFF3008010BD081A03D3EFF300809043C3
:1011D00005E0EFF3008001219043C907084380F345
:1011E000008810BD0D231B041A4204D011460020B4
:1011F00000F02DF810BD00F041F810BD0000009087
:10120000754600F043F8AE46050069465346C008EF
:10121000C000854618B020B5FEF7A6FF60BCB646F4
:1012200000260027C0C5C0C5C0C5C0C5C0C5C0C553
:10123000C0C5C0C5403D490849008D46704710B53E
:101240000446C046C0462046FEF77DFF10BDC802DA
:1012500012D54803400F002804D0C803C043012121
:1012600088407047EFF3008000010009032109075F
:10127000084380F3008870470020704710B502488B
:1012800000F008F810BD00000000C07F0048704763
:101290001000002010B50C461107090F092904D0D1
:1012A0000A290AD008290CD104E011460820FFF7CA
:1012B000CEFF06E0510606D501E0510601D501201A
:1012C000C007214610BDD10607D501010909CC0888
:1012D0004907000E0006044309E0410F20024907B8
:1012E000000A0143200E00061D22D1410143084699
:1012F000E7E7000001491820ABBEFEE72600020028
:101300007047000080B5024800F048FB80BDC04631
:101310006C01002080B582B001900198406A009075
:101320000098806B5021084243D1FFE70099886BF9
:10133000012252021043886300980068C0680005CB
:10134000800F002831D1FFE70098807E00282CD143
:10135000FFE70098006800680007002824D5FFE731
:1013600000980068806804210840800800280FD198
:10137000FFE70098016848680C2290434860009895
:10138000806B0121084309028843009988630AE0C1
:101390000099886B2022104388630099C86B012252
:1013A0001043C863FFE7FFE7FFE7009800F0E4FAA7
:1013B00005E00098006B016B01988847FFE702B0D9
:1013C00080BD80B582B001900198406A009000997C
:1013D000886B4022104388630099C86B0422104335
:1013E000C863009800F0D6FA02B080BD80B582B024
:1013F00001900198406A0090009800F0C7FA02B08E
:1014000080BD000080B586B004900020039002905B
:10141000049909688968032211400129019013D1B8
:10142000FFE70498006801680120C90700290090BF
:1014300007D1FFE704980068C06880B2C00B009035
:10144000FFE700980190FFE70198C007002852D1FC
:10145000FFE70498006880682B4908420DD0FFE739
:101460000499886B102210438863049AD16B012081
:101470000143D16305A9087041E0049801688868B8
:10148000012210438860214800682149FEF73EFF91
:101490000290FFE70298002804D0FFE70298401E60
:1014A0000290F7E701F0C4F80390FFE704980068A2
:1014B0000068C00700281DD1FFE701F0B9F80399C3
:1014C000401A032815D3FFE7049800680068C00796
:1014D00000280DD1FFE70499886B10221043886320
:1014E000049AD16B01200143D16305A9087006E07D
:1014F000FFE7DBE7FFE705A900200870FFE705A885
:10150000007806B080BDC0461700008004000020AF
:1015100040420F0080B5024800F067FD80BDC04624
:10152000AC01002080B5034800F05FFD024800F0E8
:101530005CFD80BD34020020F001002080B582B047
:101540000190019800900068064940181421FEF7A8
:10155000DDFE00998000086401990348C86302B069
:1015600080BDC046F8FFFDBF0000024084B003907C
:1015700002910192009303990A6C01209040C96B7B
:1015800048600098039909684860039840681028EB
:1015900009D1FFE7019803990968886002980399C7
:1015A0000968C86008E00298039909688860019892
:1015B00003990968C860FFE704B0704780B502204E
:1015C00000F084FE80BD80B582B001200190C00291
:1015D00000F07CFE0198C00300F078FE02B080BDF0
:1015E00081B0EFF3108072B60090FFE7FEE780B5A0
:1015F00088B0069005A90020087004900390FFE7CA
:1016000006983421405C012804D1FFE707A9022095
:10161000087090E00699342201208854FFE7FFE724
:10162000069800688168032001400020012902908B
:1016300013D1FFE70698006801680120C907002957
:10164000019007D1FFE706980068C06880B2C00B20
:101650000190FFE701980290FFE70298C007002879
:1016600056D1FFE70698806B022108430122110240
:1016700088430699886306980068C0680323184069
:10168000039006980168C8689843C8600698016886
:101690008868D2071043886000F0CAFF0490FFE713
:1016A000069800688068C00F012822D1FFE700F08B
:1016B000BFFF0499401A03281AD3FFE70698006871
:1016C0008068C00F012812D1FFE70698806B1021B7
:1016D00008430221884306998863FFE7069934226C
:1016E00000208854FFE707A90120087023E0FFE7E6
:1016F000D6E7039A06980168C8681043C860069840
:10170000806B01210843022188430699886308E021
:101710000699886B20221043886305A90120087070
:10172000FFE7FFE70699342200208854FFE7059879
:1017300007A90870FFE707A8007808B080BD00007F
:1017400080B58AB00890079106A90020087005901E
:101750000898C06A01210907884224D0FFE7089849
:10176000C06A01281FD0FFE70898C06A02281AD073
:10177000FFE70898C06A032815D0FFE70898C06AF9
:10178000042810D0FFE70898C06A05280BD0FFE7AF
:101790000898C06A062806D0FFE70898C06A07289C
:1017A00001D0FFE7FFE7FFE708983421405C0128FC
:1017B00004D1FFE709A902200870CDE0089934227E
:1017C00001208854FFE7FFE708980068806804213B
:1017D00008408008002800D0ABE0079840686049C6
:1017E000884200D180E00798006801210B468340C1
:1017F00008980268906A184390620898C06A0907BE
:1018000088423DD0FFE70898C06A012838D0FFE73A
:101810000898C06A022833D0FFE70898C06A0328F6
:101820002ED0FFE70898C06A042829D0FFE708985F
:10183000C06A052824D0FFE70898C06A06281FD090
:10184000FFE70898C06A07281AD0FFE70798806862
:101850000899096849690722114088420FD0FFE7BB
:1018600008980268516907208143516107998A6885
:10187000024008980168486910434861FFE7FFE7A4
:1018800007980068102805D0FFE70798006811281E
:1018900029D1FFE7079801680122D005920503923C
:1018A0001029049001D003980490049A2F490868E5
:1018B0001043086007980068102813D1FFE72C48F0
:1018C00000682C49FEF722FD01460A204843059096
:1018D000FFE70598002804D0FFE70598401E059013
:1018E000F7E7FFE7FFE723E007980068012282405F
:1018F00008980168886A90438862079800681028F1
:1019000005D0FFE707980068112810D1FFE7079876
:1019100001681448144A01921029029001D00198DC
:101920000290029A1149086810400860FFE7FFE73B
:1019300008E00899886B20221043886306A90120DB
:101940000870FFE7FFE70899342200208854FFE77A
:10195000069809A90870FFE709A800780AB080BDB9
:1019600001100000FFFF7FFFFFFFBFFF08270140BE
:101970000400002040420F0081B000900249012085
:10198000087001B07047C0467000002081B0009020
:1019900001B0704781B0009001B0704780B584B04D
:1019A00003900398006800680290039800684068FC
:1019B000019002A800784007002806D5FFE70198AB
:1019C0000421084004280CD0FFE702A80078000793
:1019D000002853D5FFE701A80078000700284DD55F
:1019E000FFE70398806BC006002807D4FFE7039940
:1019F000886B0122520210438863FFE70398006856
:101A0000C0680005800F002830D1FFE70398807E72
:101A100000282BD1FFE702A800780007002824D572
:101A2000FFE70398006880680421084080080028C8
:101A30000FD1FFE70398016848680C229043486083
:101A40000398806B01210843090288430399886346
:101A50000AE00399886B2022104388630399C86BBE
:101A600001221043C863FFE7FFE7FFE70398FFF792
:101A700083FF039801680C200860FFE702A8007844
:101A80000006002814D5FFE701A80078000600280A
:101A90000ED5FFE70399886B012212041043886377
:101AA000039800F06DF90398016880200860FFE753
:101AB00002A80078C006002824D5FFE701A8007816
:101AC000C00600281ED5FFE70398806A012807D0CA
:101AD000FFE703980068C068C00700280DD0FFE743
:101AE0000399C86B02221043C86303980168102051
:101AF00008600398FFF74EFFFFE703980168102086
:101B00000860FFE704B080BD80B586B0049003A9EB
:101B10000020087002900498002804D1FFE705A96E
:101B20000120087023E10498806B00280AD1FFE7A8
:101B300004990020C863049934228854049800F062
:101B400023F9FFE70498806BC006002800D501E167
:101B500003A80078002800D0FCE0049800688068A2
:101B6000042108408008002800D0F3E00498806B2E
:101B700002210843012109028843049988630498DB
:101B8000006881680320014000200129019013D1E1
:101B9000FFE70498006801680120C9070029009048
:101BA00007D1FFE704980068C06880B2C00B0090BE
:101BB000FFE700980190FFE70198C007002816D1C1
:101BC000FFE704980068C0681821884304998A6870
:101BD00010430968C86004980068006903218907F8
:101BE000884304994A68104309680861FFE704982C
:101BF0000168C868604A1040C8600498017E890383
:101C0000427ED2031143827E52031143826A521EE6
:101C1000531E9A4112038918C26811430269921E29
:101C200053425A41920011432422805C40000143F8
:101C30000298084302900498C07E012817D1FFE75C
:101C40000498807E002806D1FFE70298012109044C
:101C5000084302900AE00499886B202210438863AD
:101C60000499C86B01221043C863FFE7FFE704989B
:101C7000C069FF21C231884208D0FFE70498C169DA
:101C8000006A0143029808430290FFE7029A049811
:101C90000168C8681043C8600498C06A0121090738
:101CA000884223D0FFE70498C06A01281ED0FFE7CE
:101CB0000498C06A022819D0FFE70498C06A032874
:101CC00014D0FFE70498C06A04280FD0FFE70498F7
:101CD000C06A05280AD0FFE70498C06A062805D024
:101CE000FFE70498C06A07280ED1FFE7049802684E
:101CF00050690721884350610498C26A0A4001680C
:101D0000486910434861FFE704980068C0681B49B0
:101D10000840029988420CD1FFE704990020C8636B
:101D20000498806B01210843022188430499886349
:101D30000FE00498806B1021084302218843049926
:101D40008863049AD16B01200143D16303A9087011
:101D5000FFE708E00499886B10221043886303A909
:101D600001200870FFE7039805A90870FFE705A8A0
:101D7000007806B080BDC0461902FEFFE7FF3F8332
:101D800081B0009001B0704780B58CB00B900020FE
:101D90000A9009900890079006900B9800682A49CD
:101DA00088424ED1FFE7FFE7284802680121490237
:101DB0000A4302600068084005900598FFE7FFE7C6
:101DC00023480268012149040A4302600068084070
:101DD00004900498FFE701200190069003200790EB
:101DE0000020029008900920C00606A900F084FA9D
:101DF000019A029917480390174B03604160816074
:101E00008023C36013020361920242618161C16158
:101E100000F08CF9002803D0FFE7FFF7E1FBFFE7B4
:101E2000FFE70B980B4901630B984862FFE70C2012
:101E300000900022114601F030F9009801F022F9DB
:101E4000FFE70CB080BDC0460024014018100240DE
:101E500014100240AC0100200800024080B586B09A
:101E600004900391029201A9002008700498006870
:101E7000806804210840800800285FD1FFE7FFE761
:101E800004983421405C012804D1FFE705A9022011
:101E900008705BE00499342201208854FFE7FFE7D3
:101EA0000498407E012806D0FFE70498FFF7AAFABD
:101EB00001A90870FFE701A8007800283DD1FFE7DD
:101EC0000498806B012109020843224908400499C3
:101ED000886304990020C863FFE704993422002036
:101EE0008854FFE70498016B1B4888620498016BD3
:101EF0001A48C8620498016B19480863049801687D
:101F00001C2008600498016848681022104348604B
:101F100004980168C86801221043C8600499086BDE
:101F200009684031039A029B00F046F90498016861
:101F30008868042210438860FFE703E001A90220BB
:101F40000870FFE7019805A90870FFE705A8007869
:101F500006B080BDFEF1FFFF15130008ED13000869
:101F6000C313000880B582B0019069460020087054
:101F700001982121405C022807D0FFE70199042045
:101F8000886369460120087024E0019801680868A8
:101F90000E22904308600198026811680120814375
:101FA0001160019A136C01469940D26B51600199FE
:101FB00021228854FFE70199202200208854FFE75E
:101FC0000198406B002804D0FFE70198416B8847D7
:101FD000FFE7FFE76846007802B080BD81B000905F
:101FE00000982121405C01B0704780B584B0039017
:101FF0000398C06B00680290039800680068019025
:1020000002980399096CC8404007002824D5FFE7CF
:1020100001A80078400700281ED5FFE70398006854
:1020200000688006002807D4FFE703980168086865
:10203000042290430860FFE703990A6C0420904053
:10204000C96B48600398C06A002804D0FFE7039872
:10205000C16A8847FFE767E002980399096CC840A6
:10206000800700282ED5FFE701A800788007002808
:1020700028D5FFE7039800680068800600280BD485
:10208000FFE70398016808680A22904308600399F3
:10209000212201208854FFE703990A6C0220904016
:1020A000C96B4860FFE70399202200208854FFE7AE
:1020B0000398806A002804D0FFE70398816A884764
:1020C000FFE730E002980399096CC8400007002838
:1020D00028D5FFE701A800780007002822D5FFE7F0
:1020E0000398016808680E2290430860039A136CF5
:1020F000012001469940D26B51600399886303998E
:1021000021228854FFE70399202200208854FFE70A
:102110000398006B002804D0FFE70398016B884701
:10212000FFE7FFE7FFE7FFE704B080BD80B584B0BD
:102130000290002001900298002804D1FFE703A933
:102140000120087031E00299212200920220885477
:1021500002980068006801900198164908400190B3
:102160000298416882681143C268114302691143B1
:102170004269114382691143C069014301980843D0
:10218000019001980299096808600298FFF7D6F952
:10219000009B029900208863029A0121D154029980
:1021A0002022885403A90870FFE703A8007804B030
:1021B00080BDC0460FC0FFFF80B586B0049003917C
:1021C00002920193694600200870FFE704982021DD
:1021D000405C012804D1FFE705A9022008704CE00B
:1021E0000499202201208854FFE7FFE70498212169
:1021F000405C012833D1FFE7049921220220885452
:1022000004990020886304980168086801229043BB
:10221000086004980399029A019BFFF7A7F90498B4
:10222000C06A002807D0FFE70498016808680E22FA
:10223000104308600CE00498016808680A22104303
:102240000860049801680868042290430860FFE76A
:1022500004980168086801221043086009E0FFE75C
:102260000499202200208854FFE769460220087064
:10227000FFE7009805A90870FFE705A8007806B0F9
:1022800080BD000080B582B0014601A801800088B1
:10229000022805D1FFE7CB48012100F0A1F9FFE7B3
:1022A00001A800880121C903884208D1FFE700F096
:1022B000BFF904490860044901200860FFE702B043
:1022C00080BDC046F00300208000002080B582B0B1
:1022D00001A90880074800680988084208D0FFE77C
:1022E00001A80188034A11600088FFF7CBFFFFE7D0
:1022F00002B080BD140401408BB00A900991002007
:102300000890FFE7099800680899C840002800D1A4
:1023100052E109980068089A01219140084007900D
:102320000798002800D143E109984068032108403C
:10233000012807D0FFE709984068032108400228D8
:102340002CD1FFE70A988068069008984000032186
:1023500081400698884306900998C1680898400013
:10236000814006980843069006980A9988600A9862
:10237000406806900898012181400698884306909D
:102380000998406810210840010908988140069882
:102390000843069006980A994860FFE70998406844
:1023A00003210840032816D0FFE70A98C06806906A
:1023B00008984000032181400698884306900998B8
:1023C0008168089840008140069808430690069866
:1023D0000A99C860FFE7099840680321084002286D
:1023E00020D1FFE70A980899C90889004018006AB7
:1023F000069008984007C00E0F2181400698884338
:1024000006900998016908984007C00E8140069817
:102410000843069006980A99089AD20892008918EB
:102420000862FFE70A9800680690089841000320B8
:1024300002468A40069991430691099949680140EC
:1024400008984000814006980843069006980A992B
:102450000860099880798007002800D1A7E0FFE78D
:102460005648026801210A4302600068084005904E
:102470000598FFE708980321884351494058069082
:1024800008988007000F0F21814006988843069026
:102490000A980921C906884203D1FFE70020049069
:1024A00022E00A984749884203D1FFE701200390C0
:1024B00017E00A984449884203D1FFE702200290BE
:1024C0000CE00A99414A03200523009391420190B0
:1024D00001D00098019001980290FFE702980390C4
:1024E000FFE703980490FFE7049908988007000F1E
:1024F0008140069808430690069808990322914364
:102500002F4A8850324800680690079906988843F9
:10251000069009988079C006002805D5FFE707993D
:10252000069808430690FFE706982949086029485D
:102530000068069007990698884306900998807964
:102540008006002805D5FFE70799069808430690FE
:10255000FFE706981F4908601F4800680690079922
:10256000069888430690099880798007002805D549
:10257000FFE70799069808430690FFE70698164973
:1025800008601648006806900799069888430690E8
:1025900009988079C007002805D0FFE707990698B9
:1025A00008430690FFE706980C490860FFE7FFE73D
:1025B0000898401C0890A5E60BB070471810024020
:1025C000080001400004004800080048000C0048D2
:1025D000080401400C0401400404014000040140CF
:1025E00083B0029001A80180029949690091009A84
:1025F0000188104608400004914340180299886100
:1026000003B0704783B0029001A801806846027051
:102610000078002805D0FFE701A8008802998861AA
:1026200004E001A8008802998862FFE703B07047C0
:10263000014800687047C0460C04002010B583B004
:102640000190009101984121405C202839D1FFE799
:10265000FFE701984021405C012804D1FFE702A96F
:102660000220087031E00199402201208854FFE7E0
:10267000FFE70199412224208854019801680868E5
:102680000123984308600198016808681C03A0436F
:102690000860009C01980168086820430860019860
:1026A0000168086818430860019920208854FFE7F2
:1026B0000199402200208854FFE702A900200870F9
:1026C00003E002A902200870FFE702A8007803B027
:1026D00010BD84B00290019102984121405C2028F5
:1026E0003FD1FFE7FFE702984021405C012804D179
:1026F000FFE703A90220087037E002994022012079
:102700008854FFE7FFE70299412224208854029869
:10271000016808680123984308600298006800680F
:10272000009000980F21090288430090019801024F
:102730000098084300900098029909680860029880
:102740000168086818430860029920208854FFE750
:102750000299402200208854FFE703A90020087056
:1027600003E003A902200870FFE703A8007804B083
:10277000704781B0009001B0704783B0029001A80B
:1027800001706846028003B0704780B584B0039042
:1027900003980068806902900398006800680190BF
:1027A00002A84078C007002810D0FFE701A80078F1
:1027B000C00900280AD0FFE7039A516C01200143A9
:1027C0005164039909680002C861FFE702A84078D4
:1027D000042108408008002811D0FFE701A80078F4
:1027E000C00900280BD0FFE70399486C082210436A
:1027F00048640398016801208002C861FFE702A8CD
:102800004078022108404008002811D0FFE701A8C5
:102810000078C00900280BD0FFE70399486C02221A
:10282000104348640398016801204002C861FFE733
:102830000398406C0090684600780B21084205D050
:10284000FFE70398009902F08BFDFFE704B080BD1D
:1028500080B584B003900398006880690290039863
:102860000068006801900398406B002806D0FFE7DD
:102870000398436B0299019A9847FFE704B080BD23
:1028800081B0009001B0704780B582B00090009890
:10289000002804D1FFE701A90120087074E0009826
:1028A0004121405C002808D1FFE700994022002028
:1028B0008854009800F082F8FFE700994122242014
:1028C00088540098016808680122904308600099C4
:1028D00048680F231B06984309680861009801683F
:1028E0008868D203904388600098C068012808D1A6
:1028F000FFE7009988680122D203104309688860C5
:1029000007E00099886821229202104309688860D4
:10291000FFE70098C068022806D1FFE70098016829
:102920000120C0024860FFE7009801684868184A23
:102930001043486000980168C8680122D303984397
:10294000C860009908694B6918438B691B021843DA
:102950000968C8600099C8690B6A1843096808606B
:1029600000980168086810430860009900204864D6
:10297000009A41232021D1540099086300994222F2
:10298000885401A90870FFE701A8007802B080BD53
:102990000080000281B0009001B0704781B00090CB
:1029A00001B0704781B0009001B0704781B00090D5
:1029B00001B0704781B0009001B0704780B58CB015
:1029C0000B9000200A9009900890079006900B98B1
:1029D0000068384988426AD1FFE7FFE73648026855
:1029E000012149040A4302600068084005900598E7
:1029F000FFE703204102069112210791002108916F
:102A0000099004200A900920C00606A9FFF774FC6B
:102A1000FFE72A480268012149050A43026000686D
:102A2000084004900498FFE7254803902549016079
:102A30000021416081608022C26001614161816149
:102A4000C161FFF773FB002803D0FFE7FEF7C8FD65
:102A5000FFE7FFE70B981A49C1630B984862FFE74D
:102A600019480290194901601021416000218160DC
:102A70008022C260016141618161C161FFF756FB43
:102A8000002803D0FFE7FEF7ABFDFFE7FFE70B9859
:102A90000D4981630B984862FFE7172001900022DF
:102AA000114600F0FAFA019800F0ECFAFFE70CB0DA
:102AB00080BDC04600540040141002401C1002406B
:102AC000F001002030000240340200201C000240CF
:102AD00080B588B00790474841780378464AD1547A
:102AE0000078022839D1FFE74248407880281BD17E
:102AF000FFE742480590F82100220692FFF782FD89
:102B00003F480178491C0170007804F011FB014630
:102B10000598C904090C0122FFF774FD0698354990
:102B200008703849086017E034480290F821002204
:102B30000492FFF767FD02982E4903914A783049C5
:102B40000A700978C9000122FFF75CFD0399049817
:102B500008702C490860FFE7FFE726480078042842
:102B60000ED1FFE72848012202702848284900F0CA
:102B70001FF920490020087048701F490871FFE7BD
:102B80001D484078012820D1FFE70920C0064021D8
:102B900000220192FFF736FD01991E48009001F0D6
:102BA000F5FE0199009801F0C9F8019811490870E3
:102BB0004870194819496422FFF750F90198124AE0
:102BC000012111700C494870FFE70B48C0780128BB
:102BD0000DD1FFE70920C00620210122FFF712FDD9
:102BE0000F4801F0F1FA04490020C870FFE708B06F
:102BF00080BDC04684000020FC0300200004004883
:102C000001040020780000207100002078020020DC
:102C10007E000020CC0200206C0100208C000020EF
:102C20005C03002081B0009001B0704780B586B091
:102C30000490039102A8028004984121405C20285E
:102C400000D0ABE00398002805D0FFE702A8008879
:102C5000002807D1FFE7049A01204102516405A929
:102C600008709FE0FFE704984021405C012804D1F0
:102C7000FFE705A90220087094E004994022012092
:102C80008854FFE7FFE704994122222088540499E1
:102C90004222202088540499002048640398049913
:102CA00048620298049948850498408D04990885E3
:102CB0000499B948C8620499B84848630498C06B3D
:102CC00000281AD0FFE70498C16B3848886204983E
:102CD000C16BB44808630498C16B0020C8620499B2
:102CE000C96B4863049BD86B19682431039A1B8D08
:102CF000FFF762FA01A9087016E004994122282022
:102D0000885404994222002088540499486C8022F7
:102D100010434864FFE70499402200208854FFE7ED
:102D200005A9012008703DE001A8007800281AD10B
:102D3000FFE70498016848680122D2039043486085
:102D4000FFE70499402200208854FFE704980121FE
:102D5000C903009102F0AAF9009A04980168086872
:102D60001043086016E004994122282088540499F1
:102D70004222002088540499486C10221043486471
:102D8000FFE70499402200208854FFE705A90120AD
:102D9000087007E005A90020087003E005A90220DB
:102DA0000870FFE705A8007806B080BD514F000805
:102DB00080B586B00490039102A802800498412156
:102DC000405C202800D0DEE00398002805D0FFE713
:102DD00002A80088002807D1FFE7049A01204102D9
:102DE000516405A90870D2E0FFE704984021405CD7
:102DF000012804D1FFE705A902200870C7E0049963
:102E0000402201208854FFE7FFE704994122212056
:102E10008854049942222020885404990020486450
:102E20000398049948620298049948850498408D53
:102E30000499088504995848C8620499574848631A
:102E40000498006A01214904884212D1FFE70499DD
:102E5000486A0078096888620499486A401C486298
:102E60000499488D401E48850499088D401E0885A8
:102E7000FFE70498408D00286ED0FFE70498806B30
:102E800000281AD0FFE70498816B454888620498AF
:102E9000816B444808630498816B0020C8620499E0
:102EA000896B4863049B986B596A1A6828321B8D9A
:102EB000FFF782F901A9087016E004994122282041
:102EC000885404994222002088540499486C802236
:102ED00010434864FFE70499402200208854FFE72C
:102EE00005A90120087052E001A8007800281BD134
:102EF000FFE70498016848680122D20390434860C4
:102F0000FFE70499402200208854FFE7049801213C
:102F10000091C90302F0CAF8009A04980168086891
:102F200092031043086016E0049941222820885437
:102F300004994222002088540499486C10221043BE
:102F40004864FFE70499402200208854FFE705A960
:102F5000012008701BE012E0049801684868012213
:102F6000D20390434860FFE7049940220020885430
:102F7000FFE704980121C90302F098F8FFE705A9CB
:102F80000020087003E005A902200870FFE705A8EB
:102F9000007806B080BDC0460000FFFFBD5F00089E
:102FA0009D4F00082B4F0008264802780249086808
:102FB000801808607047C0460C04002080B50649A0
:102FC0000868102210430860032000F007F800F0A2
:102FD0003DF8002080BDC0460020024080B584B08E
:102FE0000290174800680190164801787D20C000C3
:102FF000FDF78CF901460198FDF788F900F0D8FD3E
:10300000002804D0FFE703A90120087014E002980B
:10301000032809D8FFE702990022D04300F03DF8C9
:1030200002980949086003E003A90120087003E041
:1030300003A900200870FFE703A8007804B080BD52
:10304000040000200A0000200C00002082B0FFE7EE
:103050000B48026801210A430260006808400190A1
:103060000198FFE7FFE777480268012109070A4353
:1030700002600068084000900098FFE702B07047C7
:103080001810024080B582B0014601A801700021ED
:10309000405603F0F5FF02B080BD80B584B0034612
:1030A00003A803700291019200214056029903F097
:1030B000FDFF04B080BD000080B586B00490002004
:1030C0000390029004988078C007002800D193E014
:1030D00001A9002008705B480068C000002810D4D7
:1030E000FFE7FFE757480268012109070A4302602A
:1030F0000068084000900098FFE701A901200870CF
:10310000FFE751480068C00500281DD4FFE74E497D
:1031100008680122120210430860FFF789FA039041
:10312000FFE749480068C00500280CD4FFE7FFF717
:103130007FFA0399401A652804D3FFE705A9032005
:1031400008707BE0EDE7FFE74048006803210902D3
:10315000084002900298002838D0FFE702980499AE
:10316000496803221202114088422FD0FFE73749F5
:103170000868032212029043029008680122120498
:10318000104308600868904308600298086002A82D
:103190000078C007002818D0FFE7FFF749FA03902E
:1031A000FFE72A480068800700280DD4FFE7FFF7F3
:1031B0003FFA0399401A9749884204D3FFE705A9CB
:1031C000032008703AE0ECE7FFE7FFE71F490868D3
:1031D000032212029043049A52681043086001A827
:1031E0000078012807D1FFE7164908680122120775
:1031F00090430860FFE7FFE704980078C0070028C5
:1032000009D0FFE71249086803229043049A9268A4
:1032100010430860FFE7049800788006002809D56D
:10322000FFE70B49086810229043049AD2681043C4
:103230000860FFE705A900200870FFE705A80078EF
:1032400006B080BD1C1002400070004020100240FB
:10325000301002407047000080B584B002900191A8
:103260000298002804D1FFE703A901200870C7E0F5
:1032700001986549096801221140884212D9FFE787
:103280006148026801218A43019B1A430260006879
:1032900008400199884204D0FFE703A90120087083
:1032A000AEE0FFE7029800788007002816D5FFE718
:1032B000029800784007002807D5FFE78149086891
:1032C0000722120210430860FFE77E490868F022D7
:1032D0009043029A926810430860FFE702980078D2
:1032E000C007002850D0FFE70298406801280BD1A2
:1032F000FFE74D4800688003002804D4FFE703A9D6
:10330000012008707CE01BE00298406802280BD185
:10331000FFE7454800688001002804D4FFE703A9BF
:10332000012008706CE00AE03F4800688007002830
:1033300004D4FFE703A90120087061E0FFE7FFE77D
:103340006049086803229043029A5268104308605B
:10335000FFF76EF90090FFE75A4800680C2108401B
:1033600002994968890088420DD0FFE7FFF760F9AC
:103370000099401A2749884204D3FFE703A9032094
:1033800008703DE0E8E7FFE701981F49096801225E
:103390001140884212D2FFE71B48026801218A438C
:1033A000019B1A430260006808400199884204D0DA
:1033B000FFE703A90120087022E0FFE702980078E8
:1033C000400700280AD5FFE73E4908680722120295
:1033D0009043029AD26810430860FFE700F026F895
:1033E00038490968C9B20A090849895CC8400849CE
:1033F00008600320FFF7F2FD03A900200870FFE733
:1034000003A8007804B080BD00200240587800086E
:103410000400002089130000034908680122D20437
:10342000104308607047C0460010024080B586B067
:1034300000200590049003900290019021480068BC
:10344000059005980C2108400090002832D0FFE735
:103450000098042804D0FFE70098082803D02AE049
:103460001D4801902AE005990F20820411408A0C22
:103470001549895C02911549096801401448405C6E
:10348000049005A88078C00700280BD0FFE7049AB5
:10349000114800231946FCF791FE029AFCF776FECC
:1034A000039004E002990B4848430390FFE7039818
:1034B000019003E0FFE708480190FFE7019806B09C
:1034C00080BDC04604100240687800082C100240FD
:1034D0007878000800093D0000127A0080B506489F
:1034E00000680006002806D5FFE7FFF7B3FE034992
:1034F00080200870FFE780BD081002400A100240DB
:1035000080B588B006900698002804D1FFE707A987
:103510000120087036E306980078C007002800D123
:1035200093E0FE4800680C21084004280DD0FFE716
:10353000FA4800680C210840082816D1FFE7F74830
:103540000068C003002810D5FFE7F7480068800333
:10355000002809D5FFE706984068002804D1FFE756
:1035600007A9012008700DE36EE0FFE706984068A8
:10357000012807D1FFE7EC49086801221204104333
:1035800008602CE00698406800280BD1FFE7E64968
:103590000868012213049843086008689204904365
:1035A00008601BE00698406805280BD1FFE7DE495C
:1035B0000868012293041843086008681204104345
:1035C00008600AE0D849086801221304984308609B
:1035D0000868920490430860FFE7FFE7FFE7FFE712
:1035E00006984068002817D0FFE7FFF721F80590FC
:1035F000FFE7CD480068800300280CD4FFE7FFF701
:1036000017F80599401A652804D3FFE707A9032096
:103610000870B7E2EDE716E0FFF70AF80590FFE75C
:10362000C1480068800300280CD5FFE7FFF700F8C9
:103630000599401A652804D3FFE707A903200870FD
:10364000A0E2EDE7FFE7FFE7FFE7069800788007D5
:10365000002876D5FFE7B14800680007800F0028F2
:103660000DD0FFE7AD4800680C210840082820D1A4
:10367000FFE7AA480068C00300281AD4FFE7AA4859
:1036800000688007002809D5FFE70698C068012870
:1036900004D0FFE707A90120087073E2A249086877
:1036A000F8229043069A1269D20010430860FFE79F
:1036B00046E00698C068002825D0FFE79A490868C8
:1036C000012210430860FEF7B3FF0590FFE796481C
:1036D0000068800700280CD4FFE7FEF7A9FF0599D2
:1036E000401A032804D3FFE707A90320087049E222
:1036F000EDE78D490868F8229043069A1269D200D6
:10370000104308601BE08849086801229043086064
:10371000FEF78EFF0590FFE78348006880070028CA
:103720000CD5FFE7FEF784FF0599401A032804D360
:10373000FFE707A90320087024E2EDE7FFE7FFE7B2
:10374000FFE706980078000700283ED5FFE70698B7
:10375000C06900281CD0FFE77449086801221043A3
:103760000860FEF765FF0590FFE770480068800776
:1037700000280CD4FFE7FEF75BFF0599401A0328E9
:1037800004D3FFE707A903200870FBE1EDE71BE086
:1037900066490868012290430860FEF749FF0590DA
:1037A000FFE7FC480068800700280CD5FFE7FEF71C
:1037B0003FFF0599401A032804D3FFE707A9032018
:1037C0000870DFE1EDE7FFE7FFE7069800784007C4
:1037D000002800D4BBE002A900200870EE48006871
:1037E000C000002810D4FFE7FFE7EB480268012182
:1037F00009070A4302600068084001900198FFE74A
:1038000002A901200870FFE7E4480068C00500280D
:103810001DD4FFE7E1490868012212021043086045
:10382000FEF706FF0590FFE7DC480068C0050028AA
:103830000CD4FFE7FEF7FCFE0599401A652804D377
:10384000FFE707A9032008709CE1EDE7FFE7FFE72A
:1038500006988068012806D1FFE7D149086801224F
:103860001043086029E00698806800280AD1FFE725
:10387000CB490868012290430860086804229043FD
:10388000086019E00698806805280AD1FFE7C44956
:103890000868042210430860086801221043086089
:1038A00009E0BF49086801229043086008680422C3
:1038B00090430860FFE7FFE7FFE7FFE706988068AF
:1038C000002818D0FFE7FEF7B3FE0590FFE7B448E5
:1038D0000068800700280DD4FFE7FEF7A9FE0599D0
:1038E000401AB049884204D3FFE707A903200870B3
:1038F00048E1ECE71EE0FEF79BFE0590FFE7A848D5
:1039000000688007002814D5FFE7FEF791FE0599AF
:10391000401AA44988420BD302E0C046041002407A
:1039200007A9032008702DE1001002402410024076
:10393000E5E7FFE702A80078012807D1FFE79649ED
:1039400008680122120790430860FFE7FFE7069826
:103950000078C006002864D5FFE706984069012872
:1039600029D1FFE7904908680422104308600868DD
:10397000012210430860FEF75BFE0590FFE78A48CE
:103980000068800700280CD4FFE7FEF751FE059978
:10399000401A032804D3FFE707A903200870F1E0C9
:1039A000EDE781490868F8229043069A9269D200AF
:1039B0001043086034E006984069401D00280ED18D
:1039C000FFE7794908680422904308600868F822F4
:1039D0009043069A9269D200104308601FE0724932
:1039E00008680422104308600868012290430860B8
:1039F000FEF71EFE0590FFE76B4800688007002871
:103A00000CD5FFE7FEF714FE0599401A032804D3EE
:103A1000FFE707A903200870B4E0EDE7FFE7FFE741
:103A2000FFE70698006A002800D1A7E05748006821
:103A30000C210840082871D0FFE70698006A022888
:103A40004ED1FFE7524908680122120690430860F0
:103A5000FEF7EEFD0590FFE74D4800688001002865
:103A60000CD5FFE7FEF7E4FD0599401A032804D3BF
:103A7000FFE707A90320087084E0EDE7FFE74B4963
:103A800008680F229043069AD26A104308603F49A3
:103A900008683D2212049043069B9A6A5B6A1A43A7
:103AA00010430860FFE73A490868012212061043F4
:103AB0000860FEF7BDFD0590FFE73548006880010E
:103AC00000280CD4FFE7FEF7B3FD0599401A032840
:103AD00004D3FFE707A90320087053E0EDE71CE0DB
:103AE0002B4908680122120690430860FEF7A0FDEA
:103AF0000590FFE726480068800100280CD5FFE705
:103B0000FEF796FD0599401A032804D3FFE707A99D
:103B10000320087036E0EDE7FFE72EE00698006A24
:103B2000012804D1FFE707A9012008702AE01748FF
:103B3000006804901D48006803900498012109045E
:103B400008400699496A884211D1FFE703980F217E
:103B500008400699C96A884209D1FFE704980F21F5
:103B6000890408400699896A884204D0FFE707A9BA
:103B70000120087006E0FFE7FFE7FFE707A9002044
:103B80000870FFE707A8007808B080BD0410024065
:103B900000100240241002401C100240007000403F
:103BA0002010024089130000341002402C10024003
:103BB00080B582B00190019802F0C2FE02B080BDD3
:103BC00081B0009001B0704781B0009001B07047A3
:103BD00084B00290019100200090FFE702983C2100
:103BE000405C012804D1FFE703A90220087046E0E9
:103BF00002993C2201208854FFE7FFE70098FF214B
:103C000088430199C968084300900098032109027C
:103C100088430199896808430090009801218A022D
:103C20009043019A5268104300900098CA02904352
:103C3000019A12681043009000980A039043019A79
:103C400012691043009000984A039043019A526908
:103C5000104300900098890388430199C96908437B
:103C600000900098029909684864FFE702993C2295
:103C700000208854FFE703A900200870FFE703A88D
:103C8000007804B07047000085B003900291FFE710
:103C900003983C21405C012804D1FFE704A90220DD
:103CA000087046E003993C2201208854FFE7FFE7B3
:103CB00003993D22022088540398006840680190CF
:103CC00003980068806800900198702188430190F3
:103CD00002980168019808430190019803990968C6
:103CE0004860039800687A49884206D0FFE7039845
:103CF0000068784988420ED1FFE700988021884308
:103D00000090029841680098084300900098039939
:103D100009688860FFE703993D2201208854FFE786
:103D200003993C2200208854FFE704A90020087072
:103D3000FFE704A8007805B07047C04680B58CB096
:103D40000A90099108A9002008700998002805D157
:103D5000FFE70A984221405C06901CE0099804287D
:103D600005D1FFE70A984321405C059010E00998CF
:103D7000082805D1FFE70A984421405C049004E03C
:103D80000A984521405C0490FFE704980590FFE7FE
:103D900005980690FFE70698012804D0FFE70BA9D5
:103DA000012008708FE00998002805D1FFE70A99E3
:103DB0004222022088541EE00998042806D1FFE719
:103DC0000A99432202208854039012E00998082897
:103DD00006D1FFE70A99442202208854029005E0A8
:103DE0000A994522022088540290FFE70298039026
:103DF000FFE70398FFE709980190002808D0FFE744
:103E0000019804280BD0FFE7019808280ED014E091
:103E10000A980168C86802221043C86011E00A9835
:103E20000168C86804221043C8600AE00A98016863
:103E3000C86808221043C86003E008A90120087080
:103E4000FFE708A80078002839D1FFE70A98016841
:103E5000C86880221043C8600A9800680999042243
:103E600002F091FE0A980168486C0122D2031043C7
:103E700048640A980068F649884206D0FFE70A9825
:103E80000068F449884212D1FFE70A980068806808
:103E90000721084007900798062807D0FFE70A98EF
:103EA00001680868012210430860FFE706E00A98ED
:103EB00001680868012210430860FFE7FFE70898DF
:103EC0000BA90870FFE70BA800780CB080BDC046B6
:103ED000002C01400004004080B588B00790069196
:103EE00005A90020087006980390002808D0FFE775
:103EF000039804280BD0FFE7039808280ED014E09D
:103F000007980168C86802229043C86011E00798CA
:103F10000168C86804229043C8600AE007980168F5
:103F2000C86808229043C86003E005A90120087012
:103F3000FFE705A80078002871D1FFE7079800681F
:103F40000699002202F01FFE07980068006A04909C
:103F500004A80088D549084207D1FFE707980168FF
:103F6000C86880229043C860FFE7FFE707980068B1
:103F7000006ACD49084210D1FFE707980068006A3F
:103F8000CA49084208D1FFE707980168486C012236
:103F9000D20390434864FFE7FFE7FFE7FFE7079896
:103FA0000068006AC04908420FD1FFE7079800681F
:103FB000006ABE49084207D1FFE707980168086810
:103FC000012290430860FFE7FFE7FFE7069800281B
:103FD00005D1FFE707994222012088541EE0069888
:103FE000042806D1FFE70799432201208854029054
:103FF00012E00698082806D1FFE70799442201201D
:104000008854019005E007994522012088540190C9
:10401000FFE701980290FFE70298FFE7FFE705A896
:10402000007808B080BDC04680B582B0009000988E
:10403000002804D1FFE701A9012008703FE00098A3
:104040003D21405C002808D1FFE700993C22002078
:104050008854009800F038F8FFE700993D220220CC
:104060008854009901C902F003FD009946220120FD
:104070008854FFE700993E220120885400993F228E
:104080008854009940228854009941228854FFE7BF
:10409000FFE7009942220120885400994322885466
:1040A000009944228854009945228854FFE70099DA
:1040B0003D220120885401A900200870FFE701A8D3
:1040C000007802B080BD000080B58AB009900998E0
:1040D00000685F49884216D1FFE7FFE73848026869
:1040E0000121C9020A43026000680840089008984C
:1040F000FFE70E20049000221146FEF7CEFF049841
:10410000FEF7C0FF55E0099800685249884215D172
:10411000FFE7FFE72B48026802210A4302600068BC
:10412000084007900798FFE71020039000221146EF
:10413000FEF7B3FF0398FEF7A5FF39E00998006882
:104140001D49884216D1FFE7FFE71E48026801219A
:1041500009020A4302600068084006900698FFE7DB
:104160001320029000221146FEF797FF0298FEF7F7
:1041700089FF1CE0099800681049884216D1FFE7C2
:10418000FFE70F480268012149040A430260006802
:10419000084005900598FFE7152001900022114680
:1041A000FEF77BFF0198FEF76DFFFFE7FFE7FFE7F4
:1041B000FFE70AB080BDC046002000400044014037
:1041C000181002401C10024083B0019001983D215C
:1041D000405C012804D0FFE702A90120087032E00A
:1041E00001993D220220885401980168C868012283
:1041F0001043C860019800681549884206D0FFE75F
:10420000019800681349884212D1FFE701980068BD
:1042100080680721084000900098062807D0FFE733
:10422000019801680868012210430860FFE706E072
:10423000019801680868012210430860FFE702A99D
:1042400000200870FFE702A8007803B07047C0465E
:10425000002C01400004004081B0009000980168EB
:10426000C86801229043C860FFE700980068006AB0
:104270000D4908420FD1FFE700980068006A0B491A
:10428000084207D1FFE700980168086801229043BF
:104290000860FFE7FFE7FFE700993D22012088540F
:1042A000002001B07047C046111100004404000016
:1042B00080B586B00490039102A900200870FFE742
:1042C00004983C21405C012804D1FFE705A90220A5
:1042D0000870AEE004993C2201208854FFE7FFE714
:1042E00004993D2202208854049800688068019057
:1042F00001987721884301900198FF2109028843A2
:1043000001900198049909688860039800680090FA
:10431000002875D0FFE70098102871D0FFE70098BB
:1043200020286DD0FFE70098302869D0FFE700987B
:10433000402858D0FFE7009850283AD0FFE700986F
:10434000602843D0FFE7009870280DD0FFE7009861
:1043500001210903884206D0FFE7009801214903A3
:10436000884216D053E056E004980068039B996891
:104370005A68DB6802F020FC0498006880680190AD
:104380000198772108430190019804990968886091
:1043900041E004980068039B99685A68DB6802F062
:1043A0000BFC04980168886801229203104388601E
:1043B00031E004980068039A5168D26802F00EFE5A
:1043C00004980068502102F012FC24E00498006870
:1043D000039A5168D26802F029FE049800686021AF
:1043E00002F005FC17E004980068039A5168D2684F
:1043F00002F0F4FD04980068402102F0F8FB0AE0A6
:10440000049800680399096802F0F1FB03E002A92F
:1044100001200870FFE704993D2201208854FFE73E
:1044200004993C2200208854FFE7029805A90870EF
:10443000FFE705A8007806B080BD81B0009001B00C
:10444000704780B582B00190019800680069022130
:1044500008404008002828D0FFE701980068C0689D
:1044600002210840400800281ED0FFE7019801689B
:104470000220C04308610199012008770198006873
:1044800080698007002804D0FFE70198FFF7D5FF77
:1044900006E0019800F03AF9019800F047FAFFE7CA
:1044A000019900200877FFE7FFE70198006800699D
:1044B000042108408008002829D0FFE701980068FF
:1044C000C06804210840800800281FD0FFE7019839
:1044D00001680420C043086101990220087701980F
:1044E000006880698005800F002804D0FFE70198EC
:1044F000FFF7A3FF06E0019800F008F9019800F02B
:1045000015FAFFE7019900200877FFE7FFE7019818
:104510000068006908210840C008002828D0FFE78B
:1045200001980068C06808210840C00800281ED013
:10453000FFE7019801680820C04308610199042041
:10454000087701980068C0698007002804D0FFE759
:104550000198FFF772FF06E0019800F0D7F8019884
:1045600000F0E4F9FFE7019900200877FFE7FFE793
:10457000019800680069102108400009002829D02E
:10458000FFE701980068C068102108400009002872
:104590001FD0FFE7019801681020C043086101990E
:1045A0000820087701980068C0698005800F0028FE
:1045B00004D0FFE70198FFF740FF06E0019800F004
:1045C000A5F8019800F0B2F9FFE7019900200877FB
:1045D000FFE7FFE7019800680069C007002811D0D5
:1045E000FFE701980068C068C007002809D0FFE70E
:1045F000019801680120C0430861019800F0A4FB04
:10460000FFE7FFE7019800680069C0B2C009002811
:1046100012D0FFE701980068C068C0B2C009002846
:1046200009D0FFE7019801688020C0430861019824
:10463000FFF7C6FAFFE7FFE701980068006940212D
:1046400008408009002813D0FFE701980068C0687F
:10465000402108408009002809D0FFE7019801683F
:104660004020C0430861019800F026FCFFE7FFE707
:10467000019800680069202108404009002813D0F3
:10468000FFE701980068C068202108404009002821
:1046900009D0FFE7019801682020C0430861019814
:1046A000FFF792FAFFE7FFE702B080BD80B588B060
:1046B00007900020069005900490039002900798C0
:1046C0000068104988421BD1FFE7FFE70E480268E7
:1046D000012149040A4302600068084001900198E2
:1046E000FFE70320C0010290022003900021049103
:1046F000059106900920C00602A9FDF7FDFDFFE720
:1047000008B080BD002C01401410024081B0009020
:1047100001B0704780B586B004900391029201A960
:1047200000200870FFE704983C21405C012804D178
:10473000FFE705A902200870A0E004993C220120AF
:104740008854FFE7FFE7029800900C2800D987E023
:104750000098810001A040588746C0469147000854
:10476000614800086148000861480008C347000824
:10477000614800086148000861480008F9470008DE
:104780006148000861480008614800082B4800089B
:1047900004980068039902F03FFA04980168886958
:1047A00008221043886104980168886904229043B4
:1047B00088610398026904980168886910438861D8
:1047C00052E004980068039902F09CFA049801688A
:1047D00088690122D30218438861049801688869B6
:1047E000920290438861039800690202049801686C
:1047F00088691043886137E004980068039902F0E3
:104800000DFB04980168C86908221043C861049828
:104810000168C86904229043C8610398026904983A
:104820000168C8691043C8611EE0049800680399D4
:1048300002F078FB04980168C8690122D30218438A
:10484000C86104980168C86992029043C8610398DE
:104850000069020204980168C8691043C86103E056
:1048600001A901200870FFE7FFE704993C2200201E
:104870008854FFE7019805A90870FFE705A80078AC
:1048800006B080BD80B582B000900098002804D1A9
:10489000FFE701A9012008703FE000983D21405C3E
:1048A000002808D1FFE700993C2200208854009896
:1048B00000F037F8FFE700993D2202208854009964
:1048C00001C902F0D5F80099462201208854FFE77B
:1048D00000993E220120885400993F228854009973
:1048E00040228854009941228854FFE7FFE700994D
:1048F000422201208854009943228854009944227E
:104900008854009945228854FFE700993D220120F0
:10491000885401A900200870FFE701A8007802B0C0
:1049200080BD81B0009001B07047000080B584B0B8
:1049300003900398124988421FD1FFE7114801688C
:10494000491C01600068462816D3FFE70920C0060D
:1049500040210122FDF756FE0948019000210291F5
:1049600000F016F902990198FFF7B6FA0298064985
:10497000087004490860FFE7FFE704B080BDC04647
:10498000CC020020F80300207100002080B58EB01A
:104990000C900B910AA9002008700B98002805D1F3
:1049A000FFE70C983E21405C08901CE00B9804281F
:1049B00005D1FFE70C983F21405C079010E00B9871
:1049C000082805D1FFE70C984021405C069004E0E0
:1049D0000C984121405C0690FFE706980790FFE79E
:1049E00007980890FFE70898012804D0FFE70DA971
:1049F00001200870C5E00B98002805D1FFE70C994D
:104A00003E22022088541EE00B98042806D1FFE7BE
:104A10000C993F2202208854059012E00B98082838
:104A200006D1FFE70C99402202208854049005E04B
:104A30000C994122022088540490FFE704980590C5
:104A4000FFE70598FFE70B9803900C283AD80398E6
:104A5000810001A0405887468D4A0008C54A0008D9
:104A6000C54A0008C54A00089B4A0008C54A000814
:104A7000C54A0008C54A0008A94A0008C54A0008F6
:104A8000C54A0008C54A0008B74A00080C980168E2
:104A9000C86802221043C86018E00C980168C86812
:104AA00004221043C86011E00C980168C86808220D
:104AB0001043C8600AE00C980168C86810221043CF
:104AC000C86003E00AA901200870FFE70AA800787F
:104AD000002852D1FFE70C9800680B99012201923F
:104AE00002F038F801980C990968924A91420290B4
:104AF00010D0FFE70C98016801208F4A9142029084
:104B000008D0FFE70C9800688C49401841424841A2
:104B10000290FFE70298C007002808D0FFE70C9832
:104B20000168486C0122D20310434864FFE70C98E7
:104B300000688049884206D0FFE70C980068134956
:104B4000884212D1FFE70C9800688068072108406E
:104B500009900998062807D0FFE70C9801680868B3
:104B6000012210430860FFE706E00C98016808681E
:104B7000012210430860FFE7FFE70A980DA90870BB
:104B8000FFE70DA800780EB080BDC04600040040CD
:104B900080B588B00790069105A900200870069896
:104BA00004900C283AD80498810001A04058874608
:104BB000E54B00081D4C00081D4C00081D4C00086A
:104BC000F34B00081D4C00081D4C00081D4C00084C
:104BD000014C00081D4C00081D4C00081D4C00082D
:104BE0000F4C000807980168C86802229043C8600B
:104BF00018E007980168C86804229043C86011E073
:104C000007980168C86808229043C8600AE00798BE
:104C10000168C86810229043C86003E005A901201C
:104C20000870FFE705A8007800287ED1FFE7079805
:104C300000680699002201F08DFF079801680120A5
:104C40003C4A9142039010D0FFE707980168012089
:104C5000394A9142039008D0FFE707980068374926
:104C60004018414248410390FFE70398C0070028DD
:104C70001AD0FFE7FFE707980068006A304908424A
:104C800010D1FFE707980068006A2E49084208D152
:104C9000FFE707980168486C0122D20390434864FB
:104CA000FFE7FFE7FFE7FFE7FFE707980068006A15
:104CB000234908420FD1FFE707980068006A21499D
:104CC000084207D1FFE7079801680868012290436E
:104CD0000860FFE7FFE7FFE70698002805D1FFE738
:104CE00007993E22012088541EE00698042806D128
:104CF000FFE707993F2201208854029012E00698AE
:104D0000082806D1FFE70799402201208854019026
:104D100005E007994122012088540190FFE701989E
:104D20000290FFE70298FFE7FFE705A8007808B0C8
:104D300080BDC046002C01400044014000B8FEBFC9
:104D4000111100004404000080B588B00790079856
:104D50004C49884206D1FFE763484B490222FDF7E0
:104D600065FFFFE70798494988426FD1FFE7484848
:104D70000078C007002837D0FFE74B48007821288B
:104D800016DBFFE7424800220692027041490120EB
:104D9000059008704348F821FDF734FC059A092076
:104DA000C0061103FDF72EFC06983F4908701AE073
:104DB0003D480490007802F0BBF93C49029108603C
:104DC00038480390F8210022FDF71CFC0299039853
:104DD0000968C904090C0122FDF714FC049908783C
:104DE000401C0870FFE730E02A480078C007002820
:104DF0002AD0FFE72848007806280DDBFFE7264980
:104E0000002008702349087024480078264908705B
:104E10001E48FFF721FA16E0204803781E49019149
:104E20000878C340012213401D48036000680978D8
:104E3000C91C884081B21B48FDF7E4FB0199087842
:104E4000401C0870FFE7FFE7FFE7FFE707981849F6
:104E5000884215D1FFE717480178491C0170007896
:104E60000F280CDBFFE71348002202700920C00660
:104E70002021FDF7C7FB0E48FFF7EEF9FFE7FFE73C
:104E800008B080BDA403002084000020140300208B
:104E90007300002068010020EC0300207C0000204B
:104EA000080400200004004801040020040400203D
:104EB0005C0300207200002081B0009001B07047B8
:104EC000FFE7FEE780B50848006880694005400FAD
:104ED000002804D0FFE70448FDF757FC03E0024830
:104EE000FDF7B6FCFFE780BD7802002080B582B0F8
:104EF00001900198406A00900098806B002805D0CE
:104F0000FFE70098816B00204863FFE70098C06BC3
:104F1000002805D0FFE70098C16B00204863FFE739
:104F2000009801F0B1FA02B080BD80B582B0019066
:104F30000198406A00900098016848680122D203F5
:104F4000104348600098102100F00AFA02B080BDBA
:104F500080B584B003900398406A02900298C06ABA
:104F600001900298C06B00684068002810D1FFE7EC
:104F70000198094988420BD0FFE702980168086848
:104F80000122D20390430860029800F061FD00E026
:104F9000FFE704B080BDC0460000FFFF80B584B0CD
:104FA00003900398406A02900298C06A01900198A9
:104FB00001210906884204D0FFE7019800280BD19F
:104FC000FFE7029801680868012292039043086095
:104FD000029800F03DFD00E0FFE704B080BD83B023
:104FE000029001A80180002100910088C0070028DC
:104FF00012D0FFE700984221084300900298412117
:10500000405C28210840282805D0FFE70098B021FF
:1050100008430090FFE7FFE701A800888007002809
:1050200012D5FFE7009844210843009002984121DF
:10503000405C28210840282805D0FFE70098B021CF
:1050400008430090FFE7FFE701A80088000400285C
:1050500005D5FFE70098B82108430090FFE701A8B5
:105060000088102805D1FFE70098902108430090A0
:10507000FFE701A80088202805D1FFE7009820213C
:1050800008430090FFE701A80088402805D1FFE70A
:105090000098402108430090FFE7009A02980168B9
:1050A00008689043086003B07047000083B0029026
:1050B00001A80180002000900298406B4949884275
:1050C00042D0FFE70298406B474988423CD0FFE757
:1050D0000298406B4549884236D0FFE701A8008816
:1050E0000004002805D5FFE70098B8210843009088
:1050F000FFE701A80088C007002805D0FFE7009857
:10510000F22108430090FFE701A8008880070028EB
:1051100005D5FFE70098F42108430090FFE701A8B8
:105120000088102805D1FFE70098902108430090DF
:10513000FFE701A80088202805D1FFE7009820217B
:1051400008430090FFE745E001A80088000400281C
:1051500005D5FFE70098B82108430090FFE701A8B4
:105160000088C007002805D0FFE70098F221084317
:105170000090FFE701A800888007002805D5FFE719
:105180000098F42108430090FFE701A80088102848
:1051900005D1FFE70098902108430090FFE701A8A0
:1051A0000088202805D1FFE700986021084300907F
:1051B000FFE70298406B0D4988420AD0FFE701A83B
:1051C0000088402805D1FFE700984021084300905F
:1051D000FFE7FFE7009A029801680868104308603B
:1051E00003B070471D5B0008BD5F0008455D000807
:1051F00081B0009000980068806902210840400852
:10520000002805D0FFE70098016800208862FFE7CA
:10521000009800688069C007002807D1FFE7009860
:1052200001688869012210438861FFE701B0704777
:1052300080B586B00590049105984121405C2821F5
:10524000084028287CD1FFE7059800688069012183
:1052500009040840000C03A90870059800688069DB
:105260007F2149040840000C02A9088005980068C5
:1052700080683A49084001A9088005980068C0681C
:10528000FE210840694608800598C068022843D17D
:10529000FFE702A80088062210400199C9091140C1
:1052A000884222D1FFE7019802A908800599886CFD
:1052B000401C88640598806C022815D1FFE7059989
:1052C00000208864059801680820C861FFE70599F7
:1052D000402200208854FFE7059803A9097802AA14
:1052E0001288FDF74AFAFFE715E0009802A9088046
:1052F00005980121C903FFF772FEFFE705994022D7
:1053000000208854FFE7059803A9097802AA1288AB
:10531000FDF733FAFFE712E005980121C903FFF713
:105320005EFEFFE70599402200208854FFE70598BC
:1053300003A9097802AA1288FDF71FFAFFE70AE01D
:10534000059801680820C861FFE705994022002000
:105350008854FFE7FFE706B080BDC046FF030000AA
:1053600080B584B00390029103984121415C01A86B
:105370000170039A42230021D154039B984ADA62B8
:10538000039A5185029B039A516C1943516400782A
:1053900028280AD0FFE701A80078292805D0FFE7D0
:1053A00001A800782A280CD1FFE703980321FFF712
:1053B00016FE0399412228208854039960484863C7
:1053C00035E003988749FFF70AFE0398FFF710FFBF
:1053D00003984121405C602825D0FFE703984122D3
:1053E0002021815403980068806908404009012801
:1053F00018D1FFE703980068806910210840000970
:1054000001280AD1FFE7039801681020C8610399B9
:10541000486C042210434864FFE703980168202089
:10542000C861FFE7FFE7039900204863FFE703989F
:10543000006B00900398806B00283AD0FFE700983B
:10544000112804D0FFE70098212832D1FFE7039804
:10545000006800684004002808D5FFE70398016849
:1054600008680122920390430860FFE70398806B6D
:10547000FCF7B4FD012817D0FFE70398816B314892
:105480004863FFE70399402200208854FFE7039810
:10549000806BFCF767FD002805D0FFE70398806B61
:1054A000416B8847FFE703E0039800F0EDFFFFE75B
:1054B00043E00398C06B00283AD0FFE70098122819
:1054C00004D0FFE70098222832D1FFE70398006854
:1054D00000680004002808D5FFE703980168086801
:1054E0000122D20390430860FFE70398C06BFCF7EA
:1054F00075FD012817D0FFE70398C16B1148486379
:10550000FFE70399402200208854FFE70398C06B0F
:10551000FCF728FD002805D0FFE70398C06B416B1E
:105520008847FFE703E0039800F0AEFFFFE703E0E2
:10553000039800F0A9FFFFE7FFE704B080BDC04675
:10554000ED610008ED4E000880B582B00190009139
:1055500001999148C862019900200863019A41238A
:105560002021D15401994222885401994863684608
:10557000007804210840800800281ED0FFE7019829
:105580000068406A0199496A08700199486A401C9C
:1055900048620198008D00280ED0FFE70199088D20
:1055A000401E08850199488D401E48850199486C28
:1055B000042210434864FFE7FFE701980949FFF719
:1055C0000EFD019801681020C861FFE70199402293
:1055D00000208854FFE70198FDF7DCF902B080BD98
:1055E0000000FFFF0380000080B586B005900491A5
:1055F00004980290059801682020C861059841210F
:10560000405C212808D1FFE705980121FFF7E7FC5E
:105610000599112008630FE005984121405C22287C
:1056200008D1FFE705980221FFF7D9FC0599122060
:10563000086300E0FFE7FFE7059801684868554AFE
:105640001040486005990020486305995248C86297
:1056500002A8007810210840000900280AD0FFE7BE
:10566000059801681020C8610599486C0422104310
:105670004864FFE705984121405C60280FD1FFE7AF
:1056800002A80078042108408008002807D0FFE71E
:1056900005980068406AC0B201900198FFE705983C
:1056A000FFF7A6FD0598406C039005984121405CEA
:1056B000602804D0FFE70398002805D0FFE705988D
:1056C000416CFFF74DFE62E005984121405C2128C6
:1056D0002AD1FFE70599412220208854059900200E
:1056E000086305984221405C40280ED1FFE70599E8
:1056F000422200208854FFE7059940220020885468
:10570000FFE70598FDF756F90DE0059942220020C4
:105710008854FFE70599402200208854FFE7059848
:10572000FDF740F9FFE731E005984121405C222870
:105730002AD1FFE7059941222020885405990020AD
:10574000086305984221405C40280ED1FFE7059987
:10575000422200208854FFE7059940220020885407
:10576000FFE70598FDF722F90DE005994222002098
:105770008854FFE70599402200208854FFE70598E8
:10578000FDF70CF9FFE700E0FFE7FFE7FFE706B0F2
:1057900080BDC04600E800FE0000FFFF80B582B07B
:1057A0000190019942220020885401984121405CD7
:1057B000212818D1FFE7019941222020885401991E
:1057C0001120086301990020486301980121FFF727
:1057D00006FCFFE70199402200208854FFE701986A
:1057E000FDF7E0F817E00199412220208854019943
:1057F0001220086301990020486301980221FFF7F5
:10580000EEFBFFE70199402200208854FFE7019852
:10581000FDF7C4F8FFE702B080BD000080B586B098
:105820000590049105980068006803900498029020
:1058300005984121415C01A8017005990A68202161
:10584000D1610078212805D0FFE701A80078292838
:1058500008D1FFE705987C49FFF7C1FB0599212096
:10586000086313E001A80078222805D0FFE701A80B
:1058700000782A2808D1FFE705987249FFF7AFFBA7
:1058800005992220086300E0FFE7FFE7059801681B
:1058900048680122D20310434860059801684868AF
:1058A0006A4A104048600598FFF7A2FC03A84078B8
:1058B000402108408009002814D0FFE705980168BE
:1058C000086801229203904308600598806B0028C5
:1058D00007D0FFE70598806B006840680599488508
:1058E000FFE71BE003A84078C009002814D0FFE7B9
:1058F0000598016808680122D20390430860059862
:10590000C06B002807D0FFE70598C06B00684068AF
:1059100005994885FFE700E0FFE7FFE702A8007868
:1059200004210840800800281DD0FFE702980421C8
:105930008843029005980068406A0599496A087092
:105940000599486A401C48620598008D002809D0D6
:10595000FFE70599088D401E08850599488D401E72
:105960004885FFE7FFE70598408D002806D0FFE750
:105970000599486C042210434864FFE705994222C8
:1059800000208854059948630598406C002810D081
:10599000FFE70598416CFFF7E3FC05984121405C67
:1059A000282805D1FFE705980299FFF7CDFDFFE70D
:1059B00046E00598C06AE149884217D0FFE705989C
:1059C00000F046F80599DD48C8620599412220207B
:1059D0008854059900200863FFE7059940220020BC
:1059E0008854FFE70598FCF7D5FF28E0059841218A
:1059F000405C222811D1FFE70599412220208854DC
:105A0000059900200863FFE705994022002088548B
:105A1000FFE70598FDF75CF810E00599412220208A
:105A20008854059900200863FFE70599402200206B
:105A30008854FFE70598FDF7F5F8FFE7FFE7FFE774
:105A400006B080BD028000000180000000E800FE7A
:105A500080B582B0019001980068006800900199BB
:105A6000422200208854684640784021084080093E
:105A7000002808D0FFE70198016808680122920316
:105A8000904308600FE068464078C009002808D0BD
:105A9000FFE70198016808680122D203904308607B
:105AA00000E0FFE7FFE701984121405C292815D17C
:105AB000FFE7019941222820885401992120086399
:105AC00001980121FFF78BFAFFE70199402200209E
:105AD0008854FFE70198FDF7A5F81CE001984121E3
